{
  "transactions": [
    {
      "hash": "0xbe6ec778759d7fccef97074c125373ac5ae9a7dc908c84cc7a195a28e88d205e",
      "transactionType": "CALL",
      "contractName": null,
      "contractAddress": "0x79ebeb76bf49b478783c7cfb2d51098a0bd5b4f2",
      "function": "approve(address,uint256)",
      "arguments": [
        "0x8b05aE37CB96998247d4CBf6bC94047ceA477E24",
        "115792089237316195423570985008687907853269984665640564039457584007913129639935"
      ],
      "transaction": {
        "from": "0x4c6cba41672b4445283b3409c9078997b8519538",
        "to": "0x79ebeb76bf49b478783c7cfb2d51098a0bd5b4f2",
        "gas": "0xfee1",
        "value": "0x0",
        "input": "0x095ea7b30000000000000000000000008b05ae37cb96998247d4cbf6bc94047cea477e24ffffffffffffffffffffffffffffffffffffffffffffffffffffffffffffffff",
        "nonce": "0xd",
        "chainId": "0x279f"
      },
      "additionalContracts": [],
      "isFixedGasLimit": false
    }
  ],
  "receipts": [
    {
      "status": "0x1",
      "cumulativeGasUsed": "0x203b172",
      "logs": [
        {
          "address": "0x79ebeb76bf49b478783c7cfb2d51098a0bd5b4f2",
          "topics": [
            "0x8c5be1e5ebec7d5bd14f71427d1e84f3dd0314c0f7b2291e5b200ac8c7c3b925",
            "0x0000000000000000000000004c6cba41672b4445283b3409c9078997b8519538",
            "0x0000000000000000000000008b05ae37cb96998247d4cbf6bc94047cea477e24"
          ],
          "data": "0xffffffffffffffffffffffffffffffffffffffffffffffffffffffffffffffff",
          "blockHash": "0x4dca507ba7a4fe83293542dbc92d1e53fc69dda04fbc5b277ab20a999ce09b49",
          "blockNumber": "0xcfcaa9",
          "blockTimestamp": "0x6808feee",
          "transactionHash": "0xbe6ec778759d7fccef97074c125373ac5ae9a7dc908c84cc7a195a28e88d205e",
          "transactionIndex": "0x4d",
          "logIndex": "0xcb",
          "removed": false
        }
      ],
      "logsBloom": "0x00000000000000000000000000000000000000000000000000000000000000000000000000000000000000000000000000000000000000000001000000200000000000000000000000000000000000000000000000000000000000000400000000000000000000020000000000000000000000000000000000000000000000000000000000000000000000000008000000000020000000000000000000004000020000000000000000000000000000000000000000000000000000000000000000000000000000000000000000000080000000000000000008000000002000000010000000000000000000000000000000000000000000000000000000000000",
      "type": "0x2",
      "transactionHash": "0xbe6ec778759d7fccef97074c125373ac5ae9a7dc908c84cc7a195a28e88d205e",
      "transactionIndex": "0x4d",
      "blockHash": "0x4dca507ba7a4fe83293542dbc92d1e53fc69dda04fbc5b277ab20a999ce09b49",
      "blockNumber": "0xcfcaa9",
      "gasUsed": "0xfee1",
      "effectiveGasPrice": "0xba43b7401",
      "from": "0x4c6cba41672b4445283b3409c9078997b8519538",
      "to": "0x79ebeb76bf49b478783c7cfb2d51098a0bd5b4f2",
      "contractAddress": null
    }
  ],
  "libraries": [],
  "pending": [],
  "returns": {},
  "timestamp": 1745420016,
  "chain": 10143,
  "commit": "f602f8d"
}