{
  "transactions": [
    {
      "hash": "0x9caadeaa9af06868abc654b10e6165848d7b2af7235d14d1f852cf5530d69f6d",
      "transactionType": "CALL",
      "contractName": null,
      "contractAddress": "0x0f9b3c3826e603c5b836167f66787154b37c881a",
      "function": "approve(address,uint256)",
      "arguments": [
        "0x8b05aE37CB96998247d4CBf6bC94047ceA477E24",
        "115792089237316195423570985008687907853269984665640564039457584007913129639935"
      ],
      "transaction": {
        "from": "0x4c6cba41672b4445283b3409c9078997b8519538",
        "to": "0x0f9b3c3826e603c5b836167f66787154b37c881a",
        "gas": "0x9382",
        "value": "0x0",
        "input": "0x095ea7b30000000000000000000000008b05ae37cb96998247d4cbf6bc94047cea477e24ffffffffffffffffffffffffffffffffffffffffffffffffffffffffffffffff",
        "nonce": "0x9",
        "chainId": "0x279f"
      },
      "additionalContracts": [],
      "isFixedGasLimit": false
    },
    {
      "hash": "0xc4ad109e766f1dd87b07b9161fe10cc308bef988074ade5268920d0486eda1c1",
      "transactionType": "CALL",
      "contractName": null,
      "contractAddress": "0x60b216191f4424496bd29c659eae7498a40bf0c8",
      "function": "approve(address,uint256)",
      "arguments": [
        "0x8b05aE37CB96998247d4CBf6bC94047ceA477E24",
        "115792089237316195423570985008687907853269984665640564039457584007913129639935"
      ],
      "transaction": {
        "from": "0x4c6cba41672b4445283b3409c9078997b8519538",
        "to": "0x60b216191f4424496bd29c659eae7498a40bf0c8",
        "gas": "0x9382",
        "value": "0x0",
        "input": "0x095ea7b30000000000000000000000008b05ae37cb96998247d4cbf6bc94047cea477e24ffffffffffffffffffffffffffffffffffffffffffffffffffffffffffffffff",
        "nonce": "0xa",
        "chainId": "0x279f"
      },
      "additionalContracts": [],
      "isFixedGasLimit": false
    }
  ],
  "receipts": [
    {
      "status": "0x1",
      "cumulativeGasUsed": "0x40afe07",
      "logs": [
        {
          "address": "0x0f9b3c3826e603c5b836167f66787154b37c881a",
          "topics": [
            "0x8c5be1e5ebec7d5bd14f71427d1e84f3dd0314c0f7b2291e5b200ac8c7c3b925",
            "0x0000000000000000000000004c6cba41672b4445283b3409c9078997b8519538",
            "0x0000000000000000000000008b05ae37cb96998247d4cbf6bc94047cea477e24"
          ],
          "data": "0xffffffffffffffffffffffffffffffffffffffffffffffffffffffffffffffff",
          "blockHash": "0xf83b9b0d57cb65d26190e2a788adab7c00b694ce9aeb1fcfac56e35d0628c225",
          "blockNumber": "0xcfc9de",
          "blockTimestamp": "0x6808fe82",
          "transactionHash": "0x9caadeaa9af06868abc654b10e6165848d7b2af7235d14d1f852cf5530d69f6d",
          "transactionIndex": "0x16d",
          "logIndex": "0x30b",
          "removed": false
        }
      ],
      "logsBloom": "0x00000000000000000000000000000000000000000000000000000000000000000000000000000000000000000000000000000000000000000001000000200000000001000000000000000000000000000000000000000000000000000000000000000000000000020000000000000000000000000000000000000000000000000000000000000000000000000008000000000020000000000000000000000000020000000000000000000000000000000000000000000000000000000000000000000000000000000000000000000000000000000000000008000000002008000010000000000000000000000000000800000000000000000000000000000000",
      "type": "0x2",
      "transactionHash": "0x9caadeaa9af06868abc654b10e6165848d7b2af7235d14d1f852cf5530d69f6d",
      "transactionIndex": "0x16d",
      "blockHash": "0xf83b9b0d57cb65d26190e2a788adab7c00b694ce9aeb1fcfac56e35d0628c225",
      "blockNumber": "0xcfc9de",
      "gasUsed": "0x9382",
      "effectiveGasPrice": "0xba43b7401",
      "from": "0x4c6cba41672b4445283b3409c9078997b8519538",
      "to": "0x0f9b3c3826e603c5b836167f66787154b37c881a",
      "contractAddress": null
    },
    {
      "status": "0x1",
      "cumulativeGasUsed": "0x40b9189",
      "logs": [
        {
          "address": "0x60b216191f4424496bd29c659eae7498a40bf0c8",
          "topics": [
            "0x8c5be1e5ebec7d5bd14f71427d1e84f3dd0314c0f7b2291e5b200ac8c7c3b925",
            "0x0000000000000000000000004c6cba41672b4445283b3409c9078997b8519538",
            "0x0000000000000000000000008b05ae37cb96998247d4cbf6bc94047cea477e24"
          ],
          "data": "0xffffffffffffffffffffffffffffffffffffffffffffffffffffffffffffffff",
          "blockHash": "0xf83b9b0d57cb65d26190e2a788adab7c00b694ce9aeb1fcfac56e35d0628c225",
          "blockNumber": "0xcfc9de",
          "blockTimestamp": "0x6808fe82",
          "transactionHash": "0xc4ad109e766f1dd87b07b9161fe10cc308bef988074ade5268920d0486eda1c1",
          "transactionIndex": "0x16e",
          "logIndex": "0x30c",
          "removed": false
        }
      ],
      "logsBloom": "0x00000000000000000000000000000000000000000000000000000000000000000000000000000000000000000000000000000000000000000001000000200000000010000000000000000000000000000000000000000000000000000000000000000000000000020000000000000000000000000000000000000000000000000000000000000080000000000008000000000220000000000000000000000000020000000000000000000000000000000000000000000000000000000000000000000000000000000000000000000000000000000000000008000000002000000010000000000000000000000000000000000000000000000000000000000000",
      "type": "0x2",
      "transactionHash": "0xc4ad109e766f1dd87b07b9161fe10cc308bef988074ade5268920d0486eda1c1",
      "transactionIndex": "0x16e",
      "blockHash": "0xf83b9b0d57cb65d26190e2a788adab7c00b694ce9aeb1fcfac56e35d0628c225",
      "blockNumber": "0xcfc9de",
      "gasUsed": "0x9382",
      "effectiveGasPrice": "0xba43b7401",
      "from": "0x4c6cba41672b4445283b3409c9078997b8519538",
      "to": "0x60b216191f4424496bd29c659eae7498a40bf0c8",
      "contractAddress": null
    }
  ],
  "libraries": [],
  "pending": [],
  "returns": {},
  "timestamp": 1745419908,
  "chain": 10143,
  "commit": "f602f8d"
}