{
  "transactions": [
    {
      "hash": null,
      "transactionType": "CALL",
      "contractName": null,
      "contractAddress": "0x0f9b3c3826e603c5b836167f66787154b37c881a",
      "function": "approve(address,uint256)",
      "arguments": [
        "0x8b05aE37CB96998247d4CBf6bC94047ceA477E24",
        "115792089237316195423570985008687907853269984665640564039457584007913129639935"
      ],
      "transaction": {
        "from": "0x1804c8ab1f12e6bbf3894d4083f33e07309d1f38",
        "to": "0x0f9b3c3826e603c5b836167f66787154b37c881a",
        "gas": "0xfee1",
        "value": "0x0",
        "input": "0x095ea7b30000000000000000000000008b05ae37cb96998247d4cbf6bc94047cea477e24ffffffffffffffffffffffffffffffffffffffffffffffffffffffffffffffff",
        "nonce": "0x0",
        "chainId": "0x279f"
      },
      "additionalContracts": [],
      "isFixedGasLimit": false
    },
    {
      "hash": null,
      "transactionType": "CALL",
      "contractName": null,
      "contractAddress": "0x60b216191f4424496bd29c659eae7498a40bf0c8",
      "function": "approve(address,uint256)",
      "arguments": [
        "0x8b05aE37CB96998247d4CBf6bC94047ceA477E24",
        "115792089237316195423570985008687907853269984665640564039457584007913129639935"
      ],
      "transaction": {
        "from": "0x1804c8ab1f12e6bbf3894d4083f33e07309d1f38",
        "to": "0x60b216191f4424496bd29c659eae7498a40bf0c8",
        "gas": "0xfee1",
        "value": "0x0",
        "input": "0x095ea7b30000000000000000000000008b05ae37cb96998247d4cbf6bc94047cea477e24ffffffffffffffffffffffffffffffffffffffffffffffffffffffffffffffff",
        "nonce": "0x1",
        "chainId": "0x279f"
      },
      "additionalContracts": [],
      "isFixedGasLimit": false
    }
  ],
  "receipts": [],
  "libraries": [],
  "pending": [],
  "returns": {},
  "timestamp": 1745417485,
  "chain": 10143,
  "commit": "f602f8d"
}