{
  "transactions": [
    {
      "hash": "0x61b6b448e1b6a06306acf4145e84c2dd309d9f2f226b71e4ad3b511868efcae3",
      "transactionType": "CALL",
      "contractName": null,
      "contractAddress": "0x0f9b3c3826e603c5b836167f66787154b37c881a",
      "function": "approve(address,uint256)",
      "arguments": [
        "0x8b05aE37CB96998247d4CBf6bC94047ceA477E24",
        "115792089237316195423570985008687907853269984665640564039457584007913129639935"
      ],
      "transaction": {
        "from": "0x4c6cba41672b4445283b3409c9078997b8519538",
        "to": "0x0f9b3c3826e603c5b836167f66787154b37c881a",
        "gas": "0xfee1",
        "value": "0x0",
        "input": "0x095ea7b30000000000000000000000008b05ae37cb96998247d4cbf6bc94047cea477e24ffffffffffffffffffffffffffffffffffffffffffffffffffffffffffffffff",
        "nonce": "0x4",
        "chainId": "0x279f"
      },
      "additionalContracts": [],
      "isFixedGasLimit": false
    },
    {
      "hash": "0x4af43f98612f7ec9ee3fe5dc33ec0e153db0254721dd814d0fae2dc994e06bbf",
      "transactionType": "CALL",
      "contractName": null,
      "contractAddress": "0x60b216191f4424496bd29c659eae7498a40bf0c8",
      "function": "approve(address,uint256)",
      "arguments": [
        "0x8b05aE37CB96998247d4CBf6bC94047ceA477E24",
        "115792089237316195423570985008687907853269984665640564039457584007913129639935"
      ],
      "transaction": {
        "from": "0x4c6cba41672b4445283b3409c9078997b8519538",
        "to": "0x60b216191f4424496bd29c659eae7498a40bf0c8",
        "gas": "0xfee1",
        "value": "0x0",
        "input": "0x095ea7b30000000000000000000000008b05ae37cb96998247d4cbf6bc94047cea477e24ffffffffffffffffffffffffffffffffffffffffffffffffffffffffffffffff",
        "nonce": "0x5",
        "chainId": "0x279f"
      },
      "additionalContracts": [],
      "isFixedGasLimit": false
    }
  ],
  "receipts": [
    {
      "status": "0x1",
      "cumulativeGasUsed": "0xbefced",
      "logs": [
        {
          "address": "0x0f9b3c3826e603c5b836167f66787154b37c881a",
          "topics": [
            "0x8c5be1e5ebec7d5bd14f71427d1e84f3dd0314c0f7b2291e5b200ac8c7c3b925",
            "0x0000000000000000000000004c6cba41672b4445283b3409c9078997b8519538",
            "0x0000000000000000000000008b05ae37cb96998247d4cbf6bc94047cea477e24"
          ],
          "data": "0xffffffffffffffffffffffffffffffffffffffffffffffffffffffffffffffff",
          "blockHash": "0xdae4cbde8c35c0d62008b9223e6e75723c34e0c5ea065859e7ea0ac01331add3",
          "blockNumber": "0xcfbe39",
          "blockTimestamp": "0x6808f852",
          "transactionHash": "0x61b6b448e1b6a06306acf4145e84c2dd309d9f2f226b71e4ad3b511868efcae3",
          "transactionIndex": "0x63",
          "logIndex": "0xb3",
          "removed": false
        }
      ],
      "logsBloom": "0x00000000000000000000000000000000000000000000000000000000000000000000000000000000000000000000000000000000000000000001000000200000000001000000000000000000000000000000000000000000000000000000000000000000000000020000000000000000000000000000000000000000000000000000000000000000000000000008000000000020000000000000000000000000020000000000000000000000000000000000000000000000000000000000000000000000000000000000000000000000000000000000000008000000002008000010000000000000000000000000000800000000000000000000000000000000",
      "type": "0x2",
      "transactionHash": "0x61b6b448e1b6a06306acf4145e84c2dd309d9f2f226b71e4ad3b511868efcae3",
      "transactionIndex": "0x63",
      "blockHash": "0xdae4cbde8c35c0d62008b9223e6e75723c34e0c5ea065859e7ea0ac01331add3",
      "blockNumber": "0xcfbe39",
      "gasUsed": "0xfee1",
      "effectiveGasPrice": "0xba43b7401",
      "from": "0x4c6cba41672b4445283b3409c9078997b8519538",
      "to": "0x0f9b3c3826e603c5b836167f66787154b37c881a",
      "contractAddress": null
    },
    {
      "status": "0x1",
      "cumulativeGasUsed": "0xbffbce",
      "logs": [
        {
          "address": "0x60b216191f4424496bd29c659eae7498a40bf0c8",
          "topics": [
            "0x8c5be1e5ebec7d5bd14f71427d1e84f3dd0314c0f7b2291e5b200ac8c7c3b925",
            "0x0000000000000000000000004c6cba41672b4445283b3409c9078997b8519538",
            "0x0000000000000000000000008b05ae37cb96998247d4cbf6bc94047cea477e24"
          ],
          "data": "0xffffffffffffffffffffffffffffffffffffffffffffffffffffffffffffffff",
          "blockHash": "0xdae4cbde8c35c0d62008b9223e6e75723c34e0c5ea065859e7ea0ac01331add3",
          "blockNumber": "0xcfbe39",
          "blockTimestamp": "0x6808f852",
          "transactionHash": "0x4af43f98612f7ec9ee3fe5dc33ec0e153db0254721dd814d0fae2dc994e06bbf",
          "transactionIndex": "0x64",
          "logIndex": "0xb4",
          "removed": false
        }
      ],
      "logsBloom": "0x00000000000000000000000000000000000000000000000000000000000000000000000000000000000000000000000000000000000000000001000000200000000010000000000000000000000000000000000000000000000000000000000000000000000000020000000000000000000000000000000000000000000000000000000000000080000000000008000000000220000000000000000000000000020000000000000000000000000000000000000000000000000000000000000000000000000000000000000000000000000000000000000008000000002000000010000000000000000000000000000000000000000000000000000000000000",
      "type": "0x2",
      "transactionHash": "0x4af43f98612f7ec9ee3fe5dc33ec0e153db0254721dd814d0fae2dc994e06bbf",
      "transactionIndex": "0x64",
      "blockHash": "0xdae4cbde8c35c0d62008b9223e6e75723c34e0c5ea065859e7ea0ac01331add3",
      "blockNumber": "0xcfbe39",
      "gasUsed": "0xfee1",
      "effectiveGasPrice": "0xba43b7401",
      "from": "0x4c6cba41672b4445283b3409c9078997b8519538",
      "to": "0x60b216191f4424496bd29c659eae7498a40bf0c8",
      "contractAddress": null
    }
  ],
  "libraries": [],
  "pending": [],
  "returns": {},
  "timestamp": 1745418324,
  "chain": 10143,
  "commit": "f602f8d"
}