{
  "transactions": [
    {
      "hash": "0x90edb2c6fa431b1761e802dce47fd066a0de4240586e16a9acdf90fe6e10585e",
      "transactionType": "CALL",
      "contractName": null,
      "contractAddress": "0x0f9b3c3826e603c5b836167f66787154b37c881a",
      "function": "approve(address,uint256)",
      "arguments": [
        "0x8b05aE37CB96998247d4CBf6bC94047ceA477E24",
        "115792089237316195423570985008687907853269984665640564039457584007913129639935"
      ],
      "transaction": {
        "from": "0x4c6cba41672b4445283b3409c9078997b8519538",
        "to": "0x0f9b3c3826e603c5b836167f66787154b37c881a",
        "gas": "0x9382",
        "value": "0x0",
        "input": "0x095ea7b30000000000000000000000008b05ae37cb96998247d4cbf6bc94047cea477e24ffffffffffffffffffffffffffffffffffffffffffffffffffffffffffffffff",
        "nonce": "0x6",
        "chainId": "0x279f"
      },
      "additionalContracts": [],
      "isFixedGasLimit": false
    },
    {
      "hash": "0x017902451434298fa3e96e0e5204a8e47fef45ab62bfc0e854ee100391fd09f8",
      "transactionType": "CALL",
      "contractName": null,
      "contractAddress": "0x60b216191f4424496bd29c659eae7498a40bf0c8",
      "function": "approve(address,uint256)",
      "arguments": [
        "0x8b05aE37CB96998247d4CBf6bC94047ceA477E24",
        "115792089237316195423570985008687907853269984665640564039457584007913129639935"
      ],
      "transaction": {
        "from": "0x4c6cba41672b4445283b3409c9078997b8519538",
        "to": "0x60b216191f4424496bd29c659eae7498a40bf0c8",
        "gas": "0x9382",
        "value": "0x0",
        "input": "0x095ea7b30000000000000000000000008b05ae37cb96998247d4cbf6bc94047cea477e24ffffffffffffffffffffffffffffffffffffffffffffffffffffffffffffffff",
        "nonce": "0x7",
        "chainId": "0x279f"
      },
      "additionalContracts": [],
      "isFixedGasLimit": false
    }
  ],
  "receipts": [
    {
      "status": "0x1",
      "cumulativeGasUsed": "0x4602773",
      "logs": [
        {
          "address": "0x0f9b3c3826e603c5b836167f66787154b37c881a",
          "topics": [
            "0x8c5be1e5ebec7d5bd14f71427d1e84f3dd0314c0f7b2291e5b200ac8c7c3b925",
            "0x0000000000000000000000004c6cba41672b4445283b3409c9078997b8519538",
            "0x0000000000000000000000008b05ae37cb96998247d4cbf6bc94047cea477e24"
          ],
          "data": "0xffffffffffffffffffffffffffffffffffffffffffffffffffffffffffffffff",
          "blockHash": "0x1c8fc92f23ca564a34caaa58900432f66efe4be4f6d9ab8075f22eb699c0884d",
          "blockNumber": "0xcfc7c0",
          "blockTimestamp": "0x6808fd65",
          "transactionHash": "0x90edb2c6fa431b1761e802dce47fd066a0de4240586e16a9acdf90fe6e10585e",
          "transactionIndex": "0x5b",
          "logIndex": "0xee",
          "removed": false
        }
      ],
      "logsBloom": "0x00000000000000000000000000000000000000000000000000000000000000000000000000000000000000000000000000000000000000000001000000200000000001000000000000000000000000000000000000000000000000000000000000000000000000020000000000000000000000000000000000000000000000000000000000000000000000000008000000000020000000000000000000000000020000000000000000000000000000000000000000000000000000000000000000000000000000000000000000000000000000000000000008000000002008000010000000000000000000000000000800000000000000000000000000000000",
      "type": "0x2",
      "transactionHash": "0x90edb2c6fa431b1761e802dce47fd066a0de4240586e16a9acdf90fe6e10585e",
      "transactionIndex": "0x5b",
      "blockHash": "0x1c8fc92f23ca564a34caaa58900432f66efe4be4f6d9ab8075f22eb699c0884d",
      "blockNumber": "0xcfc7c0",
      "gasUsed": "0x9382",
      "effectiveGasPrice": "0xba43b7401",
      "from": "0x4c6cba41672b4445283b3409c9078997b8519538",
      "to": "0x0f9b3c3826e603c5b836167f66787154b37c881a",
      "contractAddress": null
    },
    {
      "status": "0x1",
      "cumulativeGasUsed": "0x460baf5",
      "logs": [
        {
          "address": "0x60b216191f4424496bd29c659eae7498a40bf0c8",
          "topics": [
            "0x8c5be1e5ebec7d5bd14f71427d1e84f3dd0314c0f7b2291e5b200ac8c7c3b925",
            "0x0000000000000000000000004c6cba41672b4445283b3409c9078997b8519538",
            "0x0000000000000000000000008b05ae37cb96998247d4cbf6bc94047cea477e24"
          ],
          "data": "0xffffffffffffffffffffffffffffffffffffffffffffffffffffffffffffffff",
          "blockHash": "0x1c8fc92f23ca564a34caaa58900432f66efe4be4f6d9ab8075f22eb699c0884d",
          "blockNumber": "0xcfc7c0",
          "blockTimestamp": "0x6808fd65",
          "transactionHash": "0x017902451434298fa3e96e0e5204a8e47fef45ab62bfc0e854ee100391fd09f8",
          "transactionIndex": "0x5c",
          "logIndex": "0xef",
          "removed": false
        }
      ],
      "logsBloom": "0x00000000000000000000000000000000000000000000000000000000000000000000000000000000000000000000000000000000000000000001000000200000000010000000000000000000000000000000000000000000000000000000000000000000000000020000000000000000000000000000000000000000000000000000000000000080000000000008000000000220000000000000000000000000020000000000000000000000000000000000000000000000000000000000000000000000000000000000000000000000000000000000000008000000002000000010000000000000000000000000000000000000000000000000000000000000",
      "type": "0x2",
      "transactionHash": "0x017902451434298fa3e96e0e5204a8e47fef45ab62bfc0e854ee100391fd09f8",
      "transactionIndex": "0x5c",
      "blockHash": "0x1c8fc92f23ca564a34caaa58900432f66efe4be4f6d9ab8075f22eb699c0884d",
      "blockNumber": "0xcfc7c0",
      "gasUsed": "0x9382",
      "effectiveGasPrice": "0xba43b7401",
      "from": "0x4c6cba41672b4445283b3409c9078997b8519538",
      "to": "0x60b216191f4424496bd29c659eae7498a40bf0c8",
      "contractAddress": null
    }
  ],
  "libraries": [],
  "pending": [],
  "returns": {},
  "timestamp": 1745419623,
  "chain": 10143,
  "commit": "f602f8d"
}